:100000000C9406030C943E030C943E030C943E03A4
:100010000C943E030C943E030C943E030C943E035C
:100020000C943E030C94770F0C943E030C94C00F79
:100030000C94B27B0C94B8100C94DA7B0C943E03B5
:100040000C943E030C943E030C943E030C943E032C
:100050000C94D4110C9434120C9406120C943E039C
:100060000C9483170C9471120C9418170C943E0383
:100070000C9446110C94A6110C9478110C943E0328
:100080000C943E030C943E030C943E03D434D934B8
:10009000D934D934DE34E834FE34E334EE34F33486
:1000A000BF35C235C535C535C835CE35D835CB3564
:1000B000D135D435283BF13B0E3CAC3A8A3C8A3CE6
:1000C000FF3B0E3C143C623C3B3C8A3C8A3C623C1D
:1000D000053B653C164FC24E4E4F4E4F094F164FD3
:1000E0004E4F4E4F4E4F234F324FE24EEE4E4E4F3D
:1000F000BF4EDB61E061B162C962E062D663056454
:10010000A764A764A764A764A764A764A764A76497
:10011000A76484639063A7649661B2639C62D264AF
:1001200005653B65276518653B6553658465846592
:1001300084658465846584658465846584652765D4
:100140003B658465C5642E6512652F7242727872B4
:100150007872787242724272427278724272F371AD
:10016000FD7102727872057208720B7278721272E7
:1001700015724272427224723872787227722A7231
:1001800073722D722D7242724272427242724272C8
:1001900042724272427242724272427242724272BF
:1001A00042724272427242721A724272787278726B
:1001B00078727872787278727872787278727872EF
:1001C0007872787278727872427242723B725C73A3
:1001D0000D735E735E735E730D730D735E735E738A
:1001E0000D73AA72C372CA725E73CE72D572DE725A
:1001F0005E73E572E9725E730D73FA7209735E7372
:10020000FE7205735C735C735C730D730D730D7319
:100210000D730D730D730D730D730D730D730D73DE
:100220000D730D730D730D730D730D73F0720D73EC
:100230005E735E735E735E735E735E735E735E7336
:100240005E735E735E735E735E735E730D730D73C8
:100250005C73F30804000C090C0035090D00A808B4
:100260001500B0091900A8091A0018091B0019097E
:100270001C001A091D0024091E000D092F00130976
:100280003100B2093200AB0934003F0935004109A1
:1002900036004A093800B6093900120941005D03E9
:1002A00042009108FF006C071501000000000000EB
:1002B000000000000000000000000000000000003E
:1002C000000000000000000000000000000000002E
:1002D000000000000000000000000000000000001E
:1002E000000000000000000000000000000000000E
:1002F00000000000000000000000000000000000FE
:1003000000000000000000000000000000000000ED
:100310000001020100020205080000FFFF34120084
:1003200000000000000000020405000001000000C1
:1003300000000000000000000000000000000000BD
:1003400000000000000000000000000000000000AD
:10035000000000000500FF000002C8320000003469
:1003600012010303000010270000010001E8030050
:100370000004E8030000000000000000000000008E
:10038000000000000000000000000000000000036A
:1003900003000084000000070706020502040000B5
:1003A0000500080102020A01005F0020000B010C99
:1003B00010F3080800080904000C090100AF090146
:1003C00000C0090100B6090800B209020041090293
:1003D000004A090100AB090100B00901000F090141
:1003E000001009010011090100120901000D0902A4
:1003F0000013090100AD090100AC090100D2080198
:1004000000D408010035090800A80804001B0904ED
:10041000001409040018090100190901001A090152
:100420000024091100A80901001F09010020090486
:10043000003D090100D50802003F0901003E090105
:10044000004009010000000000930302009703012F
:10045000009503020098030100990301009A03012B
:10046000009B0301009C0301009D0301009E03010A
:10047000009F030100A0030100A1030100A20301EA
:1004800000AF030200A4030100A5030100A60301BD
:1004900000AB030400A3030100A7030100A80301AC
:1004A00000A90302003F0200005D030000C3020038
:1004B000001A040000000000003D040000000000DD
:1004C000005F080000000000000D070000000000B1
:1004D00000440700006F0700001B08000000000038
:1004E00000000000006C07000091080000250C29A6
:1004F0000C2D0C310C350C390CB32F8A290000005F
:10050000006A51B8549846B0500000000000000046
:1005100000424600002C470000F544E44595441F86
:10052000440000000000000000000002020302017D
:1005300002010101010101010202010101020202A5
:100540000202020202020202020203030202030288
:100550000000000001080000000001010000000090
:1005600001013B535C50010100000000010100004B
:10057000000001080853465101010000000001017C
:100580000000000001080000000001010000000060
:10059000010300000000010400000000010500004C
:1005A0000000010600000000010100000000010140
:1005B0000000000000010000000001000000000039
:1005C000010800000000010A000000000100000016
:1005D0000000010100000000010100000000000017
:1005E00000007E45000800007E45000C00007E45AE
:1005F000000000007E45000000000000009E590041
:10060000000000A5510000000000000011248091AE
:10061000D20F823141F084B78F718093D20F80FF67
:1006200005C081E001C081E18093D20F14BE8091AA
:1006300060008861809360001092600011241FBEEA
:10064000CFEFD0E4DEBFCDBF11E0A0E0B1E0ECE63B
:10065000FEEF00E00BBF02C007900D92A036B1077D
:10066000D9F71FE0A0E6B1E001C01D92A23DB1079D
:10067000E1F70E94F6180E94B918FDCF0C94000013
:100680007F937FB7F8949D9AA5988AEF0E949F0365
:100690008AEF0E949F039D9886E40E949F0381E059
:1006A000959980E08F9380EF0E949F038F917FBF89
:1006B0007F9108957F937FB7F8949D9AA59886E0DF
:1006C0000E949F039D988AE00E949F0388949599B9
:1006D0000894881F8F9384E60E949F038F917FBFA9
:1006E0007F9108959F937F9398E00E945A03879586
:1006F00077959A959923C9F7872F7F919F910895B0
:100700007F937FB7F894A5989D9A8F9386E00E9477
:100710009F038F91879508F49D988F9384E60E949C
:100720009F038F919D987FBF7F9108959F9398E03D
:100730000E9480039A959923D9F79F9108958A95ED
:100740008823E9F708955F937F937FB7F894CF9359
:10075000DF93C0E0D0E07F935091B2007091B2007F
:100760007517E1F3739521965091B2005717D9F799
:100770007F91CE01DF91CF917FBF7F915F910895EF
:100780000F93DF93CF93CDB7DEB760970FB6F89492
:10079000DEBF0FBECDBF002309F459C029833A83C1
:1007A0004B835C836D837E838F839887E0E2E01BBD
:1007B00029813A814B815C811E16BCF019861A860C
:1007C0001B861C868E2F992787FD90959095819585
:1007D0009F4F04C0220F331F441F551F8A95D2F725
:1007E0002D873E874F87588B2AC0CA01B901002E3A
:1007F00004C0660F771F881F991F0A94D2F7698774
:100800007A878B879C87DA01C90104C0B695A795C2
:1008100097958795EA95D2F72D813E814F8158852E
:1008200004C0220F331F441F551F0A95D2F7822B95
:10083000932BA42BB52B8D879E87AF87B88B2985EB
:100840003A854B855C856D857E858F859889609618
:100850000FB6F894DEBF0FBECDBFCF91DF910F91E1
:100860000895089590933E0280933D02662329F4F3
:1008700080EE93E9A4E0B0E004C082E390E0A0E061
:10088000B0E08093380290933902A0933A02B0937B
:100890003B0281E080933C0282E392E00E946F0978
:1008A000089584E095E060E00E9432040895A8E095
:1008B000B0E0EDE5F4E00C94547E8B01E82EFF24CB
:1008C000B701660F771F660F771F6E5A7D4FCE01F7
:1008D000019644E050E00E94E37E89819A81F8010C
:1008E000938382832B813C813183208380912101FA
:1008F00090E00197E816F90639F480912201909171
:100900002301821B930B14C0B701660F771F660F7C
:10091000771F6A5A7D4FCE01059644E050E00E9451
:10092000E37E8F8198852B813C81821B930BF8019C
:10093000958384832896E6E00C94707E02C00E9422
:10094000F3180E942F0D8823D1F708950F931F935A
:10095000CF93DF938C01EB010E949E04C801BE017E
:100960000E94CD0C2FEF8F3F920739F084E0C13306
:10097000D80729F40E949E0402C081E001C080E0F3
:10098000DF91CF911F910F910895A6E0B0E0EBECBD
:10099000F4E00C94547EFF24E09021018E010F5F5F
:1009A0001F4F0CC08F2DB8010E945704C80161E38E
:1009B00074E00E94A604882321F4F394FE1490F3BB
:1009C00080E02696E6E00C94707E0F931F93CF9301
:1009D000DF938C01EB010E949E04C801BE010E94BE
:1009E000690D2FEF8F3F920739F084E0C133D807AC
:1009F00029F40E949E0402C081E001C080E0DF91E2
:100A0000CF911F910F910895ADE0B0E0EAE0F5E0DD
:100A10000C944C7E81E0809360017090210152E043
:100A2000C52ED12CCC0EDD1E46E0642E38E0E32E20
:100A3000F12CEC0EFD1E5E010894A11CB11C21E0FE
:100A4000822E912C33C0B6010E945704F701862DE7
:100A500011928A95E9F7BB86AA869D868C8600E06E
:100A600010E01EC08A819B81800F911F9987888723
:100A7000C70161E374E00E94A604AA85BB85EC81EE
:100A8000FD81E00FF11F9C918081981739F0CE0114
:100A9000029664E075E00E94E50423C00F5F1F4FDB
:100AA0008E819F8108171907E8F215C080916101B6
:100AB000871548F2109261010E947706813031F467
:100AC00084E095E061E00E9432040BC00E94510472
:100AD0001092600106C0809161018F5F8093610177
:100AE000E5CF2D96EEE00C94687EA6E0B0E0EBE753
:100AF000F5E00C94547E0E948808FF24E0902101C8
:100B00008E010F5F1F4F0CC08F2DB8010E9457043C
:100B1000C80161E374E00E94E504882349F4F3947A
:100B2000FE1490F30E944906882311F40E94770670
:100B30002696E6E00C94707E0E94CA06813091F001
:100B4000882341F00E947505813061F00E945104B4
:100B500082E008950E94C504813031F00E94510462
:100B600080E0089581E0089581E00895A7E0B0E075
:100B7000ECEBF5E00C94507E8C0119820097E1F1CA
:100B8000FC01108284E090E09B838A8381E090E006
:100B90009F838E83E0902201F09023016E010894E0
:100BA000C11CD11C82E0A82EB12CAC0EBD1E1DC0F4
:100BB000DD82CC820E949E04C50160E070E00E944C
:100BC000CD0CFFEF8F3F9F0721F481E0F801838375
:100BD00013C00E949E04F80180819981890F80834F
:100BE0008A819B8101969B838A838A819B818E1552
:100BF0009F05F0F2F80113822796EAE00C946C7ED0
:100C0000A6E0B0E0E6E0F6E00C94507E8C010097A0
:100C1000E1F1E0902201F0902301FA82E98281E083
:100C200090E09E838D839AE0A92EB12CAE0CBF1C60
:100C30006E010894C11CD11C1FC01C830B830E9431
:100C40009E04C60160E070E00E94CD0C2FEF8F3F44
:100C5000920721F481E0F801838317C00E949E046B
:100C6000F801208189819A812F3F19F09283818335
:100C70000BC001969A83898389819A818A159B0585
:100C8000E0F2F801F282E18213822696EAE00C9407
:100C90006C7EA7E0B0E0EFE4F6E00C94557E8FEFB9
:100CA0008983CE0101969D838C838091220190914E
:100CB00023019B838A8381E090E09F838E832AE0D7
:100CC000F22E8E010E5F1F4FC80161E374E00E9497
:100CD000E504882341F42A813B812F5F3F4F3B830A
:100CE0002A83FA9489F72796E5E00C94717EAFE0A9
:100CF000B0E0EDE7F6E00C94587E8FEF8983CE01EB
:100D000002960E9400068D818130E9F1CE0106969F
:100D10000E94B60589858130B1F19E818A81890F53
:100D2000A1F191959E838B819C819B878A87CE01BF
:100D300001969D878C8781E090E09F878E87CE010A
:100D40000A9661E374E00E94E5048823F9F48A8539
:100D50009B8501969B878A872091220130912301F0
:100D6000A901465F5F4F8417950710F03B872A87DC
:100D7000CE0106969D878C87CE010A9661E374E0CA
:100D80000E94E50403C081E001C080E02F96E2E00C
:100D90000C94747EA8E0B0E0E0EDF6E00C94587E90
:100DA000CE0105960E94B6058885813061F0CE019E
:100DB00001960E9400068C81813029F089819D81F5
:100DC000890F19F403C081E001C082E02896E2E0B7
:100DD0000C94747EA1E0B0E0E0EFF6E00C94517E5C
:100DE0007C016E010894C11CD11CBB24B39480E02B
:100DF00091E0B60141E050E00E941C0B0894E1082C
:100E0000F1085091640150FD04C08981823009F0DD
:100E10004EC02981223019F4B092640148C02330B9
:100E200001F5809164018E7F80936401869586959B
:100E3000F1F100916201109163010FC0D801129687
:100E4000ED91FC9113978091650166E671E009953B
:100E5000F80190818181092F182F0115110571F773
:100E600026C030916401273121F43260309364014F
:100E70001EC0432F46954695842F90E085309105FE
:100E8000B4F451FF05C02F7B29833D7F309364016B
:100E90008B599E4F2981DC012C93942F9F5F990FD2
:100EA000990F809164018370892B80936401E11410
:100EB000F10409F09CCF2196E9E00C946D7EBC0111
:100EC000009721F082E691E00E94711880916A01FA
:100ED000882321F08F5F80936A01089581E08093D9
:100EE0006A0180E091E00E943D0C0895A3E0B0E02B
:100EF000ECE7F7E00C94507EE82E092FB62E82E046
:100F0000898380E091E0BE016F5F7F4F41E050E058
:100F10000E94870B802F0E2D182FAA2482E0C82E46
:100F2000D12CCC0EDD1E24C0F801E080F18013C06E
:100F3000F70181917F018A83982F9250923010F0AF
:100F4000873111F480648A8380E091E0B60141E04A
:100F500050E00E94870BF8018081918122813381CA
:100F6000820F931FE816F90618F3A3940C5F1F4F26
:100F7000AB14D0F283E08B8380E091E0BE016D5F23
:100F80007F4F41E050E00E94870B2396EAE00C94EB
:100F90006C7E089580E090E00E945F070895A9E0CC
:100FA000B0E0E5EDF7E00C94587E23E32983FC01E3
:100FB00001900020E9F73197E81BF90B9E012F5FA4
:100FC0003F4F3B832A8321E030E03D832C838E8397
:100FD0009F83F987E887CE01029662E00E94760738
:100FE0002996E2E00C94747E81E3E7EDF8E0DF01FE
:100FF0001D928A95E9F781E499E06AEA72E040E897
:1010000050E00E94E37E88EA98E06AE273E04FE2F3
:1010100050E00E94E37E87EA98E069E573E041E0F2
:1010200050E00E94E37E88E099E06AE573E049E3DE
:1010300050E00E94E37E88E696E0EFE3F2E0DF0115
:101040009C011D9221503040E1F70895A4E0B0E0EA
:10105000ECE2F8E00C94587E682F70E0660F771F82
:10106000660F771F6F547C4FCE01019644E050E02D
:101070000E94E37E69817A818B819C812496E2E0E3
:101080000C94747E0E94F4070E949C050895EF92D0
:10109000FF921F93CF93DF93182FEB01209761F0FE
:1010A0000E942608AC01163220F0CE010E94E37E99
:1010B00003C0CE010E94F97EDF91CF911F91FF9076
:1010C000EF900895EF92FF92CF93DF93EB0120977B
:1010D00071F0863260F406C0CB01BE01A9010E9406
:1010E000F97E05C00E9426089C010097A9F7DF91B0
:1010F000CF91FF90EF900895CF93DF93EB010E9483
:101100002608009711F479836883DF91CF910895C1
:101110001092F3081092F4081092F5081092F60855
:101120001092F7081092F8081092F9081092FA0835
:1011300010920C09E5E3F9E0109235091182128250
:101140001382148215821682178280E090E0A1E05B
:10115000B0E08093A8089093A908A093AA08B09340
:10116000AB081092B00981E08093A8098093180918
:101170001092190980931A0984E392E190930E0961
:1011800080930D09109213098FEF9FEF9093B3098D
:101190008093B2091092AB0910923F0990934209D3
:1011A0008093410910924A091092B6091092B7092A
:1011B0001092B8091092B9091092BA091092BB099D
:1011C0001092BC091092BD091092120988E0809318
:1011D000AF0983E0809310098093110987E0EDE562
:1011E000F3E0DF011D928A95E9F7109291081092C1
:1011F0006C07089508950895089508958091A901B0
:101200008130B9F0813018F08230E1F41AC00E94C8
:10121000CA0781E08093A9012FB7F8948091E80173
:101220009091E90194609093E9018093E8012FBFC8
:10123000089584E291E00E94CF0782E08093A901A3
:101240000895FFCF08958F929F92AF92BF92CF9251
:10125000DF92EF92FF920F930E94E50E4B015C012B
:101260002091B50130E040E050E060E070E080E0C7
:1012700090E000E20E94C003282939294A295B290D
:101280000F91FF90EF90DF90CF90BF90AF909F9025
:101290008F900895CF93DF93EC010097D1F0809168
:1012A000AA019091AB018C179D0719F460E070E0E2
:1012B00008C08AEA91E0BE010E944F0EBC0100976F
:1012C00041F08AEA91E0AE010E94310E20E030E068
:1012D00002C02FEF3FEFC901DF91CF910895CF9367
:1012E000DF93EC01009771F0E091AA01F091AB015E
:1012F00006C0EC17FD07D9F00190F081E02D309782
:10130000C1F706C02FEF3FEFC901DF91CF910895DC
:101310000E94AD109B01AC01198218826A837B8305
:101320008C839D838AEA91E0BE010E94E20D20E059
:1013300030E0EACFEF92FF920F931F93CF93DF93AA
:1013400018C08AEA91E060E070E0AE010E94310EC0
:101350008A85882359F4EA82FB820C831D838AEAFA
:1013600091E0BE01A80197010E94E20DEB85FC858A
:1013700009958091AA019091AB01892BD9F00E9427
:10138000AD107B018C01C091AA01D091AB018A8183
:101390009B81AC81BD81A8019701281B390B4A0BA9
:1013A0005B0B8E819F81A885B985281739074A076D
:1013B0005B0738F6CDB7DEB7E6E00C94707E90910F
:1013C000B30121E030E002C0220F331F8A95E2F71B
:1013D000922B9093B3018091CA0180688093CA01D7
:1013E0002FB7F8948091E8019091E9018260909381
:1013F000E9018093E8012FBF0895CF93DF93C82FB1
:10140000D0E0CE01805C904023E0959587952A95A9
:10141000E1F7E82FF0E0EE0FFF1FE455FE4FA0814B
:10142000B181109721F489818F77898353C0909679
:101430008C91909783FD4EC05496CD91DC91559739
:1014400084FF0AC068830190F081E02D848995892A
:101450000196958B848B3EC0CD2BE1F116964D9174
:101460005C91179716968D919C91179701961796F8
:101470009C938E93169716962D913C91179756969E
:101480008D919C9157972817390721F417961C9234
:101490001E92169716962D913C91179714968D9142
:1014A0009C9115972817390729F417965C934E934A
:1014B000169710C05496ED91FC915597E40FF51FC7
:1014C000608318968D919C911997019619969C931B
:1014D0008E931897DF91CF910895CF93DF93A82F24
:1014E000B0E0CD01805C904063E0959587956A956A
:1014F000E1F7C82FD0E0FE01EE0FFF1FE455FE4FCD
:101500006081718161157105D1F12FB7F894FB01EC
:1015100082819381408151812FBF8417950749F1C2
:10152000808D918D840F951FFC0190819A012F5F12
:101530003F4F8C9180648C9316969C931697CC0F9A
:10154000DD1FC455DE4FE881F981828D938D281708
:10155000390711F420E030E011968C9111978062E8
:1015600011968C938FB7F894FB01318320838FBF42
:1015700006C011968C911197806411968C93DF911F
:10158000CF910895E82FF0E0E05CF040A3E0F595FE
:10159000E795AA95E1F7F0E0EE0FFF1FE455FE4F47
:1015A0000190F081E02D3097C1F04FB7F89422817F
:1015B0003381808191814FBF2817390711F481E071
:1015C0008287828D938D892B11F4118E108E068C5B
:1015D000F78DE02D309709F009950895E82FF0E098
:1015E000E05CF04083E0F595E7958A95E1F7F0E05F
:1015F000EE0FFF1FE455FE4F0190F081E02D309774
:1016000091F080A1887179F48FB7F89420853185A5
:101610008FBF2115310539F0048CF58DE02D309701
:1016200011F0C90109950895803C21F0883C11F022
:1016300080E0089581E00895CF92DF92EF92FF92CB
:101640001F93CF93DF93EC016B017A01009709F4AC
:1016500053C01B85812F0E94140B882309F44CC0B2
:10166000C114D10409F448C0E114F10409F444C0E0
:10167000E12FF0E0E05CF04043E0F595E7954A9516
:10168000E1F7F0E0EE0FFF1FE455FE4F80819181FE
:10169000C817D90789F58FB7F8942E813F814C81FF
:1016A0005D818FBF60E070E014C0D601A60FB71F48
:1016B000EC89FD89E40FF51F80818C934F5F5F4FAC
:1016C0008E899F894817590711F440E050E06F5FF9
:1016D0007F4F4217530719F06E157F0530F32FB770
:1016E000F8945D834C8388859985861B970B998731
:1016F00088872FBF9B0102C02FEF3FEFC901DF9109
:10170000CF911F91FF90EF90DF90CF900895A0E0D0
:10171000B0E0EDE8FBE00C944E7EEC016B018A0139
:10172000009709F46FC0FB848F2D0E94140B88234F
:1017300009F468C0C114D10409F464C0011511058D
:1017400009F460C0EF2DF0E0E05CF04063E0F59557
:10175000E7956A95E1F7F0E0EE0FFF1FE455FE4FC5
:1017600080809180C815D90509F04CC08A8D9B8D69
:10177000892B81F42A813B81888199812817390737
:1017800009F040C0D98EC88E1B830A831982188243
:10179000B80130C08FB7F894AA80BB80E880F98088
:1017A0008FBFA50160E070E019C09A012F5F3F4F25
:1017B0008A8D9B8D2817390711F420E030E02E1513
:1017C0003F0579F0E88DF98DE40FF51FD601A60FDE
:1017D000B71F8C9180836F5F7F4FA90160177107DE
:1017E00020F38FB7F894F401538342838FBFAE1474
:1017F000BF0431F41A86EB85F0E081818062818339
:101800009B0102C02FEF3FEFC901CDB7DEB7ECE07F
:101810000C946A7EFC0183899385882349F4903C6B
:1018200019F0983C89F402C0209A0895549A0895BA
:10183000903C19F0983C41F404C020982898289ACC
:10184000089554985C985C9A089580EC0E946D0A03
:10185000089580EC0E94C20A089580EC0E94EE0A6E
:10186000089588EC0E946D0A089588EC0E94C20ACF
:10187000089588EC0E94EE0A08951F93CF93DF939A
:10188000EC010097F1F11B85812F0E94140B882336
:10189000C1F1812F90E0805C9040B3E095958795F1
:1018A000BA95E1F7E82FF0E0EE0FFF1FE455FE4F89
:1018B00080819181892B29F5D183C0838C858034E7
:1018C00019F4CE010E940A0C198218821B821A8216
:1018D0008C899D89892B11F41F8A1E8A888D998D88
:1018E000892B11F41B8E1A8E1D821C821F821E8270
:1018F00081E08A87CE010E94DE108B85282F30E0A0
:1019000002C02FEF3FEFC901DF91CF911F910895E2
:10191000CF92DF92FF920F931F93DF93CF9300D06C
:101920000F92CDB7DEB781E08983FF2400E010E09D
:1019300092E0C92ED12CCC0EDD1E9091B30189818D
:101940008923B9F02FB7F8949091B3018981892741
:101950008093B3012FBF6F2D70E0660F771F635127
:101960007B4FC60142E050E00E94E37EEA81FB81AA
:101970000995F3948981880F89830F5F1F4F063083
:101980001105D9F60F900F900F90CF91DF911F9115
:101990000F91FF90DF90CF900895FC018091B401EA
:1019A000882319F02EEF3FEF58C0309709F453C049
:1019B0008481958120813181820F931F81509041D4
:1019C00008F049C081E08093B4017093C809609326
:1019D000C709A1ECB9E086E001900D928150E1F7D2
:1019E000F999FECF20E030E017C0E091C309F091F3
:1019F000C409E20FF31F8091C1099091C2090196B9
:101A00009093C2098093C109019792BD81BDF89A54
:101A100080B580832F5F3F4F8091C5099091C609A3
:101A20002817390710F31092C6091092C509809142
:101A3000CB0180618093CB012FB7F8948091E801AE
:101A40009091E90182609093E9018093E8012FBFB2
:101A500020E030E002C02FEF3FEFC901089590E091
:101A60008091B401813009F491E0892F089580912B
:101A7000C5099091C609892B51F41092B401E091E7
:101A8000C709F091C809309719F109950895609137
:101A9000C1097091C2096F5F7F4F7093C209609353
:101AA000C10961507040E091C309F091C4094191AE
:101AB000F093C409E093C3098CE00E946212809104
:101AC000C5099091C60901979093C6098093C509ED
:101AD0000895CF93DF93FC018091B401882319F01E
:101AE0002EEF3FEF6BC0309709F466C0848195817B
:101AF00020813181820F931F8150904108F05CC09A
:101B000081E08093B401A1ECB9E086E001900D92F0
:101B10008150E1F77093C8096093C709672B19F4E6
:101B2000C0E0D0E03BC06091C1097091C2096F5F15
:101B30007F4F7093C2096093C10961507040E0917A
:101B4000C309F091C4094191F093C409E093C3091A
:101B50008CE00E9462128091C5099091C60901979C
:101B60009093C6098093C50924C06091C109709102
:101B7000C2096F5F7F4F7093C2096093C1096150C2
:101B80007040E091C309F091C4094191F093C409F8
:101B9000E093C30984E00E94621221968091C509F6
:101BA0009091C609C817D90700F3F999FECF109292
:101BB000B40120E030E002C02FEF3FEFC901DF9118
:101BC000CF910895A0E0B0E0E8EEFDE00C94507EE7
:101BD0008C01EB0169017A01FC0160817181611561
:101BE000710589F1FB01AA24BB2426813781408538
:101BF000518582819381A481B581280F391F4A1FA5
:101C00005B1F2C193D094E095F092F3F8FEF3807E5
:101C10008FEF48078FE7580748F48E819F81A8858A
:101C2000B985281739074A075B0738F48081918105
:101C30005F01009761F0FC01D8CFE617F70731F498
:101C4000F983E883F801D183C08306C0CF01F50191
:101C5000D183C08399838883CDB7DEB7EAE00C9443
:101C60006C7ECF93DF93EC01DB01FA0188819981CF
:101C70004817590739F48081918111821082888335
:101C800099830AC08081918111969C938E931182D1
:101C900010828C9111969C91DF91CF910895FC0157
:101CA0000190F081E02D06C0808191818617970711
:101CB00019F0FC013097C1F7CF01089580917000B1
:101CC0008C7F809370008091B60080628093B60014
:101CD0001092B2001092B0001092B1001092B300B6
:101CE0008091B60090E08F719070892BC9F783E0E6
:101CF00087BB87E08093B100809170008160809302
:101D0000700008958091B60090E08F719070892BDB
:101D1000C9F7809170008C7F809370008091B10032
:101D2000887F8093B10083B5826083BD8091B600C7
:101D300090E08F719070892BC9F78091B6008F7DEC
:101D40008093B6000895EF92FF920F931F937B014B
:101D50008C016091B200862F90E0809590959C0157
:101D6000442737FD4095542F3070407050702E1529
:101D70003F054007510798F4D801C701821B930B18
:101D8000A40BB50B9C01AD01BB27A52F942F832F6E
:101D90009093BC018093BB012093BD0111C0809141
:101DA000B60090E08F719070892BC9F76E0D60932B
:101DB000B30082E087BB80917000826080937000E6
:101DC0001F910F91FF90EF900895EF92FF920F9364
:101DD0001F936FB7F8947091B6012091B20084E41C
:101DE0008093B4008091B60090E08F719070892B41
:101DF000C9F7B89904C030E040E050E00AC08091D3
:101E0000B200282F30E040E050E021503F4F4F4FCC
:101E10005F4F6FBF8FEF789FC0011124AA2797FDF6
:101E2000A095BA2F820F931FA41FB51F9C01AD016F
:101E300075E0220F331F441F551F7A95D1F77C019F
:101E40008D0162E016950795F794E7946A95D1F7AE
:101E50002E0D3F1D401F511FE090B701F090B801BB
:101E60000091B9011091BA012E0D3F1D401F511F65
:101E7000281B390B4A0B5B0BB901CA011F910F914B
:101E8000FF90EF90089560E270E080E090E00895A8
:101E90002FB7F8946091B6011092B6012FBF70E091
:101EA00080E090E020E43FE140E050E00E94E77DE8
:101EB0002091B7013091B8014091B9015091BA0118
:101EC000260F371F481F591F2093B7013093B801C1
:101ED0004093B9015093BA012617370748075907AD
:101EE00028F48091B5018F5F8093B50108951F920A
:101EF0000F920FB60F920BB60F9211242F933F93B0
:101F00004F935F936F937F938F939F93AF93BF9301
:101F1000EF93FF93809170008D7F809370001092FB
:101F2000BD018091DF0180FF03C080E00E94341377
:101F30008091DF0182FF11C08091C8018160809390
:101F4000C8012FB7F8948091E8019091E90182606F
:101F50009093E9018093E8012FBFFF91EF91BF912A
:101F6000AF919F918F917F916F915F914F913F9131
:101F70002F910F900BBE0F900FBE0F901F901895D2
:101F80001F920F920FB60F920BB60F9211242F9340
:101F90003F934F935F936F937F938F939F93AF93F1
:101FA000BF93EF93FF938091BB019091BC01892B6C
:101FB000A1F58091BD018823E9F48091DF0180FFC4
:101FC00003C080E00E9434138091DF0182FF34C09F
:101FD0008091C80181608093C8012FB7F8948091E7
:101FE000E8019091E90182609093E9018093E80112
:101FF0002FBF22C08091B60090E08F719070892B26
:10200000C9F78091BD018093B30082E087BB8091C6
:10201000700082608093700009C08091BB01909134
:10202000BC0101979093BC018093BB018091DF01BB
:1020300080FF02C00E94C0128091B6018F5F809322
:10204000B6018091C80182608093C8012FB7F894CF
:102050008091E8019091E90182609093E901809379
:10206000E8012FBFFF91EF91BF91AF919F918F91A9
:102070007F916F915F914F913F912F910F900BBE88
:102080000F900FBE0F901F90189588E893E19093E2
:10209000890080938800E1E8F0E088E08083808117
:1020A00082608083EFE6F0E0808182608083089523
:1020B0002091C0013091C1014091C2015091C301F2
:1020C000260F371F481F591F2093C0013093C101AD
:1020D0004093C2015093C3018091CC0180688093EA
:1020E000CC012FB7F8948091E8019091E9018260CA
:1020F0009093E9018093E8012FBF08952FB7F894DA
:102100006091BF011092BF012FBF70E080E090E0AE
:102110002AE030E040E050E00E94E77D2091C001DD
:102120003091C1014091C2015091C301260F371F68
:10213000481F591F2093C0013093C1014093C20131
:102140005093C301261737074807590728F4809191
:10215000BE018F5F8093BE0108950E947E10609142
:10216000C0017091C1018091C2019091C301089595
:102170001F920F920FB60F9211242F938F939F935C
:102180008091BF018F5F8093BF018091CC018068F7
:102190008093CC012FB7F8948091E8019091E901E8
:1021A00082609093E9018093E8012FBF9F918F9106
:1021B0002F910F900FBE0F901F901895DC011B966A
:1021C000EC911B97F0E011821B96EC911B97F0E0CD
:1021D0001D968D919C911E97958384831C968C915E
:1021E0001C971B96EC911B97882349F4F0E082E042
:1021F00080831B96EC911B97F0E012820AC0F0E0FE
:1022000010821B96EC911B97F0E052968C9152979E
:1022100082831B96EC911B97F0E082811C969C9127
:102220001C97892B82831B96EC911B97F0E082818F
:102230001F969C911F97892B82831B96EC911B976D
:10224000F0E0828150969C915097892B82831B9657
:10225000EC911B97F0E0828151969C915197892BCC
:1022600082831B96EC911B97F0E0808180688083CD
:102270001B96EC911B97F0E08181886181831B960E
:10228000EC91F0E081818068818308951F920F9224
:102290000FB60F920BB60F9211242F933F934F93CB
:1022A0005F936F937F938F939F93AF93BF93EF93BE
:1022B000FF938091C8006091CE008C7131F488EC5E
:1022C0000E94FD0985E00E94DF09FF91EF91BF9117
:1022D000AF919F918F917F916F915F914F913F91BE
:1022E0002F910F900BBE0F900FBE0F901F9018955F
:1022F0001F920F920FB60F920BB60F9211242F93CD
:102300003F934F935F936F937F938F939F93AF937D
:10231000BF93EF93FF93E9ECF0E080818F7B8083A4
:1023200084E00E94DF09FF91EF91BF91AF919F91EF
:102330008F917F916F915F914F913F912F910F906E
:102340000BBE0F900FBE0F901F9018951F920F920B
:102350000FB60F920BB60F9211242F933F934F930A
:102360005F936F937F938F939F93AF93BF93EF93FD
:10237000FF93E9ECF0E080818F7D808383E00E9411
:10238000DF09FF91EF91BF91AF919F918F917F9165
:102390006F915F914F913F912F910F900BBE0F90D6
:1023A0000FBE0F901F9018951F920F920FB60F92AD
:1023B0000BB60F9211242F933F934F935F936F931C
:1023C0007F938F939F93AF93BF93EF93FF938091EE
:1023D000C0006091C6008C7131F480EC0E94FD0950
:1023E00082E00E94DF09FF91EF91BF91AF919F9131
:1023F0008F917F916F915F914F913F912F910F90AE
:102400000BBE0F900FBE0F901F9018951F920F924A
:102410000FB60F920BB60F9211242F933F934F9349
:102420005F936F937F938F939F93AF93BF93EF933C
:10243000FF93E1ECF0E080818F7B808381E00E945C
:10244000DF09FF91EF91BF91AF919F918F917F91A4
:102450006F915F914F913F912F910F900BBE0F9015
:102460000FBE0F901F9018951F920F920FB60F92EC
:102470000BB60F9211242F933F934F935F936F935B
:102480007F938F939F93AF93BF93EF93FF93E1EC71
:10249000F0E080818F7D808380E00E94DF09FF91E2
:1024A000EF91BF91AF919F918F917F916F915F91CC
:1024B0004F913F912F910F900BBE0F900FBE0F9039
:1024C0001F901895982FF999FECF07B600FCFDCF05
:1024D00072BD61BD40BD8FB7F8949FBBF99A8FBFA5
:1024E00008951F920F920FB60F9211242F938F937E
:1024F0009F93FB988091CB0180618093CB012FB794
:10250000F8948091E8019091E90182609093E9014B
:102510008093E8012FBF9F918F912F910F900FBE55
:102520000F901F9018950E94E50E2091C4013091E4
:10253000C5014091C6015091C701621B730B840B0A
:10254000950B1092C4011092C5011092C601109211
:10255000C7010E94581080918100826080938100A1
:102560000E9476140E946F188091DF0181FD07C0E0
:10257000E091D001F091D101309709F009950895CB
:102580000E94E616882309F44EC08091DF0182FD87
:1025900003C02FEF3FEF66C023982B988091B600C1
:1025A00090E08F719070892BC9F78091700081FD48
:1025B0000AC08FEF8093B3008091B60090E08F71D6
:1025C0009070892BC9F78091B000806C8093B00027
:1025D0008091B60090E08F719070892BC9F780913F
:1025E000B10080688093B1008091B60090E08F7157
:1025F0009070892BC9F78091B0008F738093B000E1
:102600008091B60090E08F719070892BC9F780910E
:10261000B00080688093B0008091B60090E08F7128
:102620009070892BC9F78091DF0181608093DF0171
:102630008091B60090E08F719070892BC9F78091DE
:10264000CD0180688093CD012FB7F8948091E80187
:102650009091E90182609093E9018093E8012FBF96
:1026600020E030E0C90108959091DF018170880F6A
:102670009C7F982B9093DF010E94E616882311F42B
:102680002B980EC023982B988091B0008F73809365
:10269000B0008091B60090E08F719070892BC9F7DF
:1026A000239A8091CC0184608093CC012FB7F89459
:1026B0008091E8019091E90182609093E901809313
:1026C000E8012FBF08958091DF0180FF5EC08091F7
:1026D00081008D7F809381008091C4019091C5011C
:1026E000A091C601B091C7010097A105B10551F4B1
:1026F0000E94E50E6093C4017093C5018093C601EA
:102700009093C7010E9470188091B0018111EC9ADA
:10271000F999FECF0E94E6168823B1F42B9A239AEA
:102720008091DF0182FF05C087E083BF889513BEDB
:1027300022C00E94820E85E083BF889513BE0E944E
:102740005E0E0E943B1417C090916F002091BC0058
:1027500030917A0010926F001092BC0010927A00B3
:10276000239A87E083BF889513BE90936F002093D0
:10277000BC0030937A0084E48093B4008091B6006A
:1027800090E08F719070892BC9F70895A0E0B0E0B8
:10279000ECECF3E10C944C7E00E8C1ECD5E410E0E5
:1027A00091ECC92E95E4D92EE12CF12C81ECA82EC8
:1027B00085E4B82E0E94A303BC0185E4623C78073F
:1027C00018F19E0140E050E0CB01A0E0B0E0815C58
:1027D0009544A040B040281739074A075B074CF4DE
:1027E000123039F4809166008150809366000000B9
:1027F00036C0809166008150809366000000EB0136
:10280000C15CD54411E028C085E4613C780739F10A
:10281000CE01A0E0B0E09B0140E050E0360147016E
:10282000621A730A840A950A86159705A805B905E0
:102830004CF4113039F4809166008F5F809366000C
:1028400000000DC0809166008F5F809366000000DD
:10285000E501C61BD70B12E0015009F0ABCFCDB795
:10286000DEB7EEE00C94687E0E94E616882311F431
:102870000E94C6130895CF93DF93C0E0D0E088ECA8
:102880000E949F03219683E1C838D807C1F70E94B0
:102890003414DF91CF91089580E286BB0895EFE66E
:1028A000F0E08081806280830895EFE6F0E080812F
:1028B00090819F7D9083807208952B9A08952B9824
:1028C0000895299A0895299808952898209A2B9870
:1028D000239A299A219A56985E980895E1E8F0E0A3
:1028E0008081806C8083089583E008951F9310E0B9
:1028F0000E940A1881E80E94F317812F0E94F317A3
:10290000182F0E940818183099F71F9108950E94F7
:102910009F0308958091C80180FF0BC09FB7F89472
:102920008091C8018E7F8093C8019FBF0E940C18C0
:1029300077C08091C80181FF0BC09FB7F894809148
:10294000C8018D7F8093C8019FBF0E94480F68C057
:102950008091CA0187FF0BC09FB7F8948091CA018C
:102960008F778093CA019FBF0E94880C59C08091C5
:10297000CB0183FF0BC09FB7F8948091CB01877F79
:102980008093CB019FBF0E949C164AC08091CB01CF
:1029900084FF0BC09FB7F8948091CB018F7E80930A
:1029A000CB019FBF0E94370D3BC08091CC0182FFBD
:1029B0000BC09FB7F8948091CC018B7F8093CC01A2
:1029C0009FBF0E9493122CC08091CC0185FF0BC049
:1029D0009FB7F8948091CC018F7D8093CC019FBFED
:1029E0000E946A161DC08091CC0187FF0BC09FB763
:1029F000F8948091CC018F778093CC019FBF0E9487
:102A00009A090EC08091CD0187FF0AC09FB7F89444
:102A10008091CD018F778093CD019FBF0E9463137A
:102A20008091C8018823A1F48091C901882381F491
:102A30008091CA01882361F48091CB01882341F4FD
:102A40008091CC01882321F48091CD01882361F00D
:102A50002FB7F8948091E8019091E90182609093FA
:102A6000E9018093E8012FBF089587E08093CE01AC
:102A700080E98093BC008091CC0180628093CC017E
:102A80002FB7F8948091E8019091E90182609093CA
:102A9000E9018093E8012FBF08958091CE0188233A
:102AA00019F42FEF3FEF08C01092D3091092D2090A
:102AB0001092CE0120E030E0C90108958091CE014E
:102AC000823041F08091CE01833021F08091CE019F
:102AD000843021F48091CD09880F08C08091CE0107
:102AE000853051F48091CD09880F8F5F8093BB00B2
:102AF00085E88093BC0008950E9435150895909153
:102B0000CC098091CB09981790F48091CC09E09181
:102B1000C909F091CA09E80FF11D90818F5F809378
:102B2000CC099093BB0085E88093BC00089586E0B3
:102B30008093CE0184E98093BC008091CC018062B7
:102B40008093CC012FB7F8948091E8019091E9012E
:102B500082609093E9018093E8012FBF08958091EE
:102B6000CE099091CF09A091D009B091D1092091BF
:102B7000CC0921502093CC092091CC0904C0B695F2
:102B8000A795979587952A95D2F78093BB0085E8FE
:102B90008093BC008091CC09882359F48091CE01A8
:102BA000823021F484E08093CE01089585E0809303
:102BB000CE0108958091CE01843019F40E947F15D2
:102BC00008958091CE01823021F08091CE01833032
:102BD00019F40E94AF1508958091CE01853021F43B
:102BE00085EA8093BC0008950E9435150895809170
:102BF000CE01853099F48091CB09813021F4809108
:102C0000BC008F7B03C08091BC0080648093BC00BB
:102C10008091BC0085688093BC0008950E943515A2
:102C20000895982F8091CE01853029F58091CC09A7
:102C3000E091C909F091CA09E80FF11D90838F5FF7
:102C40008093CC092091CC098091CB0930E090E0B1
:102C500001972817390724F48091BC00806403C0D1
:102C60008091BC008F7B8093BC008091BC00856804
:102C70008093BC0008950E9435150895982F809187
:102C8000CE01853021F58091CC09E091C909F09100
:102C9000CA09E80FF11D90838F5F8093CC0986E00D
:102CA0008093CE0184E98093BC008091CC01806246
:102CB0008093CC012FB7F8948091E8019091E901BD
:102CC00082609093E9018093E8012FBF08950E94EC
:102CD00035150895E091D209F091D309309791F01C
:102CE0008091CE01863041F48091BC0084FDFCCF00
:102CF00081E08093CE0104C081E08093CE0180E02A
:102D00000995089581E08093CE0108959C01009774
:102D100079F08091CE01882359F4C9010E940F17E0
:102D200081E08093CE011092CC0920E030E002C017
:102D30002FEF3FEFC90108958091CF01813051F409
:102D400082E08093CF01E091D409F091D5093097CA
:102D500009F009950895ADE0B0E0E1EBF6E10C94DF
:102D6000587EFC01009719F42FEF3FEF2AC08481B1
:102D700095819093D1018093D00180819181A2812E
:102D8000B3818F839887A987BA8781E08B871D8657
:102D90001C86CE0101960E9435182FEF8F3F9207B7
:102DA00071F08D5F9F4F59F00E94C0128F5F9F4F4F
:102DB00019F020E030E005C02DEF3FEF02C02EEF0C
:102DC0003FEFC9012D96E2E00C94747E8091E00102
:102DD0000895F999FECF9FB7F894E0E0F0E089E01C
:102DE0008093570084919FBF8F70823019F41092A6
:102DF000E00103C081E08093E0018091E00188233D
:102E000069F48FB7F8945F9350E85093610051E0F4
:102E1000509361005F918FBF0E943B140895FC01A5
:102E20001092BC001092B90080818093B800089580
:102E30001F920F920FB60F920BB60F9211242F9381
:102E40003F934F935F936F937F938F939F93AF9332
:102E5000BF93EF93FF938091B90090E0887F9070CB
:102E60008832910559F1893291058CF480319105B0
:102E700011F1813191052CF4009719F1089781F532
:102E80001AC088319105D1F0809751F51AC0883465
:102E90009105B9F0893491053CF48033910589F0AE
:102EA00080349105E9F410C08035910581F08835B2
:102EB0009105B1F411C00E945E1512C00E94DA158E
:102EC0000FC00E9435150CC00E94F71509C08091F3
:102ED000BB000E94111604C08091BB000E943E16E8
:102EE000FF91EF91BF91AF919F918F917F916F91E2
:102EF0005F914F913F912F910F900BBE0F900FBE9E
:102F00000F901F9018951F920F920FB60F920BB64D
:102F10000F9211242F933F934F935F938F939F931F
:102F2000EF93FF938091E101E091E201F091E301E1
:102F3000882351F48091E4019091E501209179007A
:102F4000E80FF91F20830FC08091E4019091E50103
:102F500040917800509179009C01220F331FE20FBD
:102F6000F31F5183408301969093E5018093E40120
:102F70002091E4013091E5018091E6019091E70113
:102F800028173907B1F480917A00877F80937A00FF
:102F90008091CB0188608093CB012FB7F89480910A
:102FA000E8019091E90182609093E9018093E80142
:102FB0002FBFFF91EF919F918F915F914F913F9123
:102FC0002F910F900BBE0F900FBE0F901F90189572
:102FD0002C9A26982E98259A279A249A80E58CBDBB
:102FE00081E08DBD08958EBD00000000000000004E
:102FF00000000000000000000000000000000000D1
:10300000000000000000000000008DB58EB508959E
:103010002C9A08952C9808959091DF0192FF24C076
:103020008091DC018823B1F4E091DD01F091DE01B3
:10303000309709F009958091DF0182FF15C06091FA
:10304000D8017091D9018091DA019091DB010E9441
:10305000A30E08959B7F9093DF01E091DD01F09135
:10306000DE01309709F009950895CF93DF93EC01C5
:10307000009719F42FEF3FEF2EC00E94430F2E81CF
:103080003F81488559850E94E77D28EE33E040E086
:1030900050E00E94267EB901CA01611571058105C3
:1030A000910519F42EEF3FEF16C02091DF0122FFAA
:1030B00003C02DEF3FEF0FC024602093DF01A2ED8E
:1030C000B1E0FE012DE001900D922150E1F70E9448
:1030D000A30E20E030E0C901DF91CF91089508955B
:1030E0000895DC018D919C911197FC0103C0019022
:1030F000F081E02D3097D9F7FB011182108204C0D6
:10310000DC018D919C9111970097D1F7ED93FC9381
:103110000895DC018D919C911197009719F4E0E0DE
:10312000F0E005C0FC01808191818D939C93CF01DB
:103130000895CF93DF93EC01DB0161157105B1F0C8
:10314000E881F981E617F70731F48081918199834D
:1031500088830CC0FC01309749F0808191818A17E7
:103160009B07C1F78D919C9191838083DF91CF91D3
:103170000895E0E0F0E021E030E0B9010E2E02C059
:10318000660F771F0A94E2F78091E8019091E901B8
:1031900086239723892BC9F04FB7F8942091E80133
:1031A0003091E901CB0180959095822393239093F0
:1031B000E9018093E8014FBFEE0FFF1FEF5CFE4F68
:1031C0000190F081E02D099504C03196EB30F105B6
:1031D000A1F68091E8019091E90120E0892B09F0A6
:1031E00021E0822F08950E94B91808950E94AF7AB5
:1031F0000E943F5A2FB7F8948091E8019091E9011D
:1032000080619093E9018093E8012FBF089521E048
:1032100030E002C0220F331F8A95E2F78091470108
:1032200090914801822B932B909348018093470102
:103230002FB7F8948091E8019091E9018061909313
:10324000E9018093E8012FBF089521E030E002C03A
:10325000220F331F8A95E2F7209530958091470120
:1032600090914801822393239093480180934701D2
:103270000895209147013091480121153105A9F1A8
:10328000E0E0F0E061E070E0AB010E2E02C0440F20
:10329000551F0A94E2F7CA0182239323892B09F16F
:1032A000242735273093480120934701EE0FFF1F55
:1032B000E75BFE4F0190F081E02D09958091470179
:1032C00090914801892B89F02FB7F8948091E801FB
:1032D0009091E90180619093E9018093E8012FBF0B
:1032E00008953196E630F10579F6089580939A0EA7
:1032F000882319F481E00E94071908958093790EBC
:10330000882361F48091000E9091010E892B19F0B1
:1033100082E00E94071981E00E94071908959093A6
:10332000780E8093770E81E00E9407190895CF935D
:10333000DF938091790E823041F483E00E947E1900
:103340008AE79EE00E94A120B9C0882309F0B6C098
:1033500080919A0E813041F50E947E1980E2EAE761
:10336000FEE0DF011D928A95E9F72091B90E3091B8
:10337000BA0E3F772F31310518F40E9478610EC0E4
:10338000C90180970B9718F40E946F5F07C0205304
:1033900030402930310510F40E9453688091790E35
:1033A000823009F08BC087C08091770E9091780EA3
:1033B000892B09F483C081E00E947E1980E2EAE74C
:1033C000FEE0DF011D928A95E9F781E69AE190938C
:1033D000940E8093930EE091770EF091780EC68153
:1033E000D781DF7782E00E947E19E091770EF0911D
:1033F000780EEC57FF4F1082CF31D10518F40E94A0
:10340000AE640CC0CE0180970B9718F40E94885EC2
:1034100005C0E097299710F40E94F069E091770EBB
:10342000F091780E8681978190938B0E80938A0E0F
:103430008331910531F08833910519F08853904814
:1034400031F4E091770EF091780E83E001C082E0D4
:10345000848380918D0E90918E0EE091770EF09185
:10346000780E892B51F487E084831092780E1092A5
:10347000770E80E00E947E191EC08091760E81AB8F
:103480008F5F8093760EE091770EF091780E81A990
:10349000858380918D0E90918E0E019690938E0E65
:1034A00080938D0E8091770E9091780EC1969093B7
:1034B000900E80938F0E81E00E940719DF91CF91CB
:1034C0000895DC01E091770EF091780E22A933A9DE
:1034D00044A955A9EC57FF4F8C918083E091770E5A
:1034E000F091780E8481833049F0863001F182308A
:1034F00029F58C91882301F584E01FC08C918823E5
:10350000D9F486819781C897B9F481859285885FBF
:103510009F4F90F086A98E3F79F4CA01B9010E94AD
:103520006067E091770EF091780E88E006C08C918C
:10353000882311F485E001C087E084831092780E1F
:103540001092770E80E00E947E1908950F931F93CA
:10355000CF93DF93EC018E8D9F8D97FF6FC08853C3
:10356000904809F46BC0A091000EB091010E62C0AA
:10357000EAA1FBA1908115968C911597981709F0F7
:1035800054C014968C911497823039F416968D910C
:103590009C911797069769F475C0843009F045C06F
:1035A00016968D919C911797069709F469C087E04C
:1035B00001C083E014968C931497A658BF4F8E8554
:1035C0008C93AA57B040823051F4A558BF4F8F85D5
:1035D000988911969C938E93AB57B04015C0833059
:1035E00099F4FD01E558FF4F898980838A89818399
:1035F0008B8982838C8983838D8984838E8985835B
:103600008F898683888D8783FD01ED57FF4F87E47F
:10361000DF011D928A95E9F76AA17BA148A159A112
:10362000CF010E94F97E82E028C08C9111969C9176
:103630009C01D901109709F09BCF26C080919A0E6A
:10364000882311F508EC1EE06AA17BA148A159A1CD
:10365000C8010E94F97ED8019D97FE018DE201907C
:103660000D928150E1F788EC9EE09093BE0E80931E
:10367000BD0E81E00E94761981E00E94071904C006
:1036800085E098CF86E096CFDF91CF911F910F9183
:10369000089581E00E9425191092780E1092770EFD
:1036A0001092790E8DE2EBE9FEE0DF011D928A9522
:1036B000E9F7E8ECFEE08FE5DF011D928A95E9F776
:1036C000F093BE0EE093BD0E10929A0E0895FF92F5
:1036D0000F931F93CF93DF93C091000ED091010EF3
:1036E00087E0F82E0BE81DE020C02C818A819B81A9
:1036F000009789F42430A9F48E819F81FE01EC5754
:10370000FF4F069711F4108301C00083FC8282E012
:103710000E94071906C02250233018F401979B839A
:103720008A83888199819C01E9012097F1F6CDB7C0
:10373000DEB7E5E00C94717EEF92FF920F931F933A
:10374000CF93DF93C091000ED091010E22E0E22EC4
:1037500094E0F92E17E001E07DC08C81873028F4D9
:10376000853050F5882339F071C08730B9F1883041
:1037700009F06CC01CC08091270F9091280F92FF18
:103780000CC08091770E9091780E892B09F05EC065
:103790000C83CE010E948F1959C01C83CC57DF4F78
:1037A0001883C458D04082E00E9407194FC0D093BC
:1037B0000B0DC0930A0D4AC0853011F4FC8201C084
:1037C000EC82C858DF4FE881F981C857D040309764
:1037D000E9F1CE0186589F4F099538C080E09EE000
:1037E000BE010E9499188E819F810197C9F4CC5720
:1037F000DF4F8881C458D040882391F4DE01A3575D
:10380000BF4FFE01EB57FF4F0081118122813381B1
:1038100044815581668177818D919C910E94254BD1
:10382000C858DF4FE881F981C857D040309721F060
:10383000CE0186589F4F09958091000E9091010E00
:10384000892B59F082E00E94071907C0888199816D
:103850009C01E901209709F080CFCDB7DEB7E6E003
:103860000C94707ECF93DF93EC016091D50870913A
:10387000D6086115710519F40E94514202C080E01A
:1038800090E037E096958795779567953A95D1F7CB
:103890007B836A831C8280E09EE0BE010E947118D7
:1038A00082E00E940719DF91CF9108950F931F9333
:1038B00082E00E9425191092010E1092000E0E94C3
:1038C000491B0E945C6702E01EE0C8010E944A0991
:1038D00010920C0E87E69BE190930E0E80930D0ED6
:1038E00080E890E0A0E0B0E08093080E9093090E8D
:1038F000A0930A0EB0930B0EC8010E946F091F918E
:103900000F910895FC010097A9F086EA858B8085C8
:10391000882381F08F3F71F08385833031F484896F
:10392000882341F08F3F19F405C0813019F4158ABE
:1039300081E0089580E00895809107028F5F809371
:103940000702815008958091EF0181508093EF012B
:103950001092E0090895FC01A081B1819093850A3D
:103960008093840A1092710A1092720A8091160252
:103970008093760A53962D913C915497E091E609F5
:10398000F091E709C901BF010E94127E462F6093A2
:10399000740AC901BF010E94127E892B19F04F5F82
:1039A0004093740A8FEF90E000901B0202C0880FD2
:1039B000991F0A94E2F780958E7F8093730A0E9484
:1039C0009C1C8093750A0895FC01878983FD03C0C0
:1039D00080E090E0089520E0838994898036910505
:1039E00008F421E081E02827822F08952091DE0944
:1039F0003091DF09FC01ED5BFF4F80819181821BDB
:103A0000930B62E270E00E94127E82E2689FB00136
:103A10001124620F731FCB010895FC01009729F454
:103A20008091F8019091F901089580819181089524
:103A30001F93182FA0E0B0E007C01396ED91FC9102
:103A400014978081181731F0CD010E940D1DDC0103
:103A5000009799F7CD011F9108951F93CF93DF939E
:103A6000B82FA091D6094091DB095091DC0990E074
:103A700060E070E084C0FA01E60FF71F9B012A5A4C
:103A80003F4F878180FD79C0ED5BFF4F118210822F
:103A9000E354F040B230F1F0B23018F0B33009F036
:103AA00071C09091DA098091D809981708F06AC01E
:103AB0009F5F9093DA091382148215821682E09137
:103AC000DB09F091DC09E60FF71F80858F70808796
:103AD00012823EC09091D9098091D709981708F0B9
:103AE00051C01091DD09C091DE09D091DF09A0E03D
:103AF00020E030E027C0FE01E20FF31FA9014E5D78
:103B00005F4F808180FD1CC09F5F9093D9098081A9
:103B100081608083E091DB09F091DC09E60FF71FFB
:103B2000ED5BFF4F8091DE099091DF09820F931FBB
:103B3000479691838083E354F04081E0828304C000
:103B4000AF5F9A01A117B8F28091DD098A17D1F011
:103B5000E091DB09F091DC09E60FF71F8085807F9B
:103B60008087BB0FB160B783118210822091DB097F
:103B70003091DC09260F371F07C09F5FB9019A17E4
:103B800008F479CF20E030E0C901DF91CF911F9197
:103B90000895CF93DF932091DB093091DC09821BDC
:103BA000930B66E570E00E94127E86E5689FE00157
:103BB0001124F901EC0FFD1F8781869590E082307A
:103BC000910569F08330910514F0039741F58091D8
:103BD000DA09882321F181508093DA0920C080918D
:103BE000D909882319F081508093D9092091DE09E1
:103BF0003091DF09ED5BFF4F80819181821B930B38
:103C000062E270E00E94127E82E2689FF00111245D
:103C1000E20FF31F808180FF02C08E7F8083E091DE
:103C2000DB09F091DC09EC0FFD1F87818E7F878314
:103C3000DF91CF9108952091DD09E091DE09F091A7
:103C4000DF0990E005C08081B29680FD19C09F5FBA
:103C50009217C8F32091D609E091DB09F091DC09B5
:103C600090E006C08781EA5AFF4F80FD09C09F5F40
:103C70009217C0F38091E009882319F081E008953C
:103C800081E0089521E030E002C0220F331F8A95C1
:103C9000E2F780911C02822B80931C022FB7F894CC
:103CA0008091E8019091E90180629093E90180930D
:103CB000E8012FBF0895CF93DF93EC01FA0100973D
:103CC00021F16B8F4115510549F080819181A281CD
:103CD000B3818C8F9D8FAE8FBF8F04C01C8E1D8EC5
:103CE0001E8E1F8EE98DFA8D309719F0CE014B96FE
:103CF0000995CE010E94E41C882339F01092850AB0
:103D00001092840A81E00E94421EDF91CF910895B3
:103D1000A2E0B0E0EEE8FEE10C94587E40911D0276
:103D200020911C02522F642F30E06F5F643008F046
:103D300060E0C901062E02C0969587950A94E2F7C5
:103D400080FF1CC060931D0281E090E0062E02C03F
:103D5000880F991F0A94E2F7582750931C0270E0CD
:103D6000660F771F67507B4FCE01019642E050E00F
:103D70000E94E37EE981FA81099504C04617A9F6FD
:103D800040931D0280911C02882361F02FB7F894A4
:103D90008091E8019091E90180629093E90180931C
:103DA000E8012FBF2296E2E00C94747EFF920F93FD
:103DB0001F938C01F62E84EF91E00E948918D801A0
:103DC0001796FC9217971596ED91FC911697C801DE
:103DD000079609958091F4019091F501892B19F0CE
:103DE00080E00E94421E1F910F91FF900895209144
:103DF000EF012F5F2093EF010E9482530895CF922D
:103E0000DF92EF92FF921F93CF93DF936C01EB0150
:103E100082E08FAFC05CDF4FF6018381948199838C
:103E20008883C054D040E090E609F090E709C601CD
:103E30000E94E41C8823E1F12091710A622F809195
:103E4000740A90E0019730E02817390711F01E2D11
:103E50000AC02E9DC0012F9D900D3E9D900D1124F6
:103E6000F6011389181B4091860A5091870A405E1B
:103E70005F4F862F90E09C012E9DC0012F9D900DDD
:103E80003E9D900D1124F60125893689280F391F92
:103E9000CA01B901412F50E00E94F97ECE5BDF4F8D
:103EA000165F19938091860A9091870A469609C0F9
:103EB000CE5BDF4FF6018389885F89938589968978
:103EC000089799838883C354D0408091EE01CB5BDF
:103ED000DF4F89938F5F8093EE01F601808D899388
:103EE000199281E08993899382E690E2998388838D
:103EF0002797E880F980C354D040F7012081822FB2
:103F00008C7F8083F60183819481207F875F9F4F20
:103F100008F02860F7012083F7012081922F9F7D10
:103F20009083F601878982FD04C02F79F7012083F1
:103F300016C09064F70190831885107F1160188770
:103F4000C6010E94E41C1F70882319F08091760A34
:103F500002C0809116028295807F182B1887C601B7
:103F60000E94E41CF70190818823A1F0906890835F
:103F70009091710A8085992339F48C7F81608087C4
:103F80008091740A818709C08C7F8260F7018087E5
:103F9000918703C09F77F7019083F6018585F7012C
:103FA0008183F60180899189F70193838283F601E9
:103FB00086859785F70195838483F6018289F701C9
:103FC0008683C6010E94E41C882319F08091750A3B
:103FD00002C00E949C1CF7018783CE0109960E94B3
:103FE000F71E80E0DF91CF911F91FF90EF90DF905F
:103FF000CF900895E091840AF091850A80819181A3
:10400000BF010E94FF1E0895E0913B0AF0913C0A17
:1040100082E08093370A8091EF099091F0099093A4
:10402000390A8093380A8BE080933A0A8091EE0136
:1040300080933D0A8F5F8093EE0110923E0A1092AA
:104040003F0A81E08093400A8093410A83EA9CE121
:104050009093430A8093420A82E880838091F60914
:1040600081838091F2099091F309938382838091F7
:10407000F4099091F509958384838091F1098683F1
:104080008091F709878382E080878091ED0981879D
:104090008091EE098287E0913B0AF0913C0A779784
:1040A0008091700A90E086709070959587958370E6
:1040B000880F2081297F282B208381E09AE00E94AD
:1040C000F71E0895BC018091EF0181508093EF01AC
:1040D0008CEE91E00E94711881E00E94421E0895CA
:1040E0000F931F93BC010091F4011091F50184EF2F
:1040F00091E00E947118012B19F480E00E94421E89
:104100001F910F910895FC0185EC8283CF010E94DD
:1041100070200895FC018AE88283CF010E947020FC
:104120000895FC0189E18283CF010E9470200895E7
:10413000BC0180EF91E00E94711881E00E94421E54
:104140000895BC0182EF91E00E94711881E00E9405
:10415000421E0895A3E0B0E0E0EBF0E20C94527E42
:104160006C01675F7F4F7B836A838BE0BE016F5F6B
:104170007F4F0E94470889818823D1F1EA80FB8024
:1041800081E0D701D6968C93D697F60183819481EE
:10419000D8969C938E93D7978389885FD9968C9372
:1041A000D9970589168908501040DB961C930E9309
:1041B000DA978FEFD80111968C93119780899189A6
:1041C00013969C938E9312978685978515969C934C
:1041D0008E931497828916968C930E949C1CF801EA
:1041E0008783D701DA96ED91FC91DB9788E038C0A0
:1041F000EA80FB8082E0F70186AB8DEF9FEF90AF06
:1042000087ABD60153968C915397875F81AF5596B4
:104210000D911C9156970950104013AF02AF1396A1
:104220008D919C911497F8019283818350968D9182
:104230009C915197948383831E968D919C911F9797
:104240009683858352968C9187830E949C1CD8010B
:1042500018968C93D701DA96ED91FC91DB978CE060
:104260008083EA81FB81D60158968C9185AFEA81E3
:10427000FB818091A70886AFEA81FB8181E087AF4F
:10428000EA81FB81E05CFF4F8083EA81FB81EF5B89
:10429000FF4F82E690E2918380838A819B810E9416
:1042A000F71E80E02396E8E00C946E7EA0E0B0E07C
:1042B000ECE5F1E20C94517EFC016B01B42E790126
:1042C0002091FB013091FC019091FA0186E1989FC9
:1042D00080011124020F131F309711F4E90116C059
:1042E000EF0113C08D89843A81F48885B81669F48A
:1042F00089859A85C816D90641F4CE01B70148E0F0
:1043000050E00E94EC7E009731F06696C017D1070E
:1043100048F3C0E0D0E0CE01CDB7DEB7E9E00C94C1
:104320006D7EAF92BF92CF92DF92FF920F931F9359
:10433000CF93DF938C016B01FB01EC5AFF4FC081DF
:10434000D18148EAF42E5F012AC0D501CD93DC93D8
:104350008B858330C9F4CE010C960E94904AFC01F3
:1043600039EAF32E0097D9F08C89D8011D968C93E9
:104370001D978081918114969C938E931397C80109
:10438000B6010E94FF1E09C08C859D85F8019483AB
:104390008383C801B6010E94AA20F82E0FC0D8015D
:1043A00050966D917C915197CE0152964C9123EF8E
:1043B00038E00E945621EC01009739F68F2DDF91ED
:1043C000CF911F910F91FF90DF90CF90BF90AF9052
:1043D00008950F931F93CF93DF93EC010881198108
:1043E000442399F46E3C11F042E001C043E0C05B0D
:1043F000DF4F88819981AA81BB81C055D040F801E7
:10440000848F958FA68FB78F638F423019F043301A
:10441000C1F40BC0E881F9818281882331F4C8019D
:10442000BE010E949121883A61F488819981F80146
:10443000638D045E1F4FA8010E945B1ECE010E9487
:10444000C91DDF91CF911F910F9108951F93CF93B5
:10445000DF93EB01CC5ADF4F19821882C455D0404C
:10446000BE010E949121182F882319F0CE010E94CD
:10447000C91D812FDF91CF911F910895A0E0B0E079
:10448000E4E4F2E20C94507E8C01C091FB01D091E7
:10449000FC019091FA0186E1989F70011124EC0EC5
:1044A000FD1E58015CE0C52ED12CC00ED11E33C0BC
:1044B000F8012185328590858D89843A59F5888562
:1044C000981741F589859A852817390719F5CE017E
:1044D000B50148E050E00E94EC7E0097D9F429C075
:1044E000913049F4F801248535858C859D85281700
:1044F000390781F418C0F80194898C89981751F410
:10450000BE01645F7F4FC60148E050E00E94EC7E30
:10451000009749F06696CE15DF0550F286EAF8015D
:10452000858BC0E0D0E0CE01CDB7DEB7EAE00C94D9
:104530006C7EF80193858B85981761F7D1CFCF9367
:10454000DF93EC010E94821C882341F0CE010E947F
:104550003E22FC01009711F088EA858BDF91CF9114
:104560000895CF93DF93EC010E94821C882351F1C0
:10457000CE010E943E221D8A892B21F54091FA012D
:104580002091FB013091FC0190E00CC0F90185897C
:104590002A5E3F4F883A29F484EA858B309739F4B4
:1045A00011C09F5F941790F38EEA8D8B0BC09F0113
:1045B000DE0186E10D90E90109929E018150D1F75B
:1045C00084EA858BDF91CF910895A0E0B0E0EBEE17
:1045D000F2E20C94537E7C0180E090E027C08A8157
:1045E000882319F5EB81FC8121813281D7015C960A
:1045F0008D919C915D9728173907B9F4D0805B960F
:104600008C915B978D1549F41F960D911C915097D5
:104610000E94763F0817190741F0F70183819481C2
:104620006D2D0E94973F882339F4CE010E940D1D05
:10463000EC010097A1F608C0D7011D96DC92ED8130
:10464000FE81C7010995F1CFCDB7DEB7E7E00C9445
:104650006F7EADE2B0E0EFE2F3E20C944C7E7C01C1
:10466000162FDC011A96AD90BC901B9715966D9194
:104670007C9116978DEF91E0F50147810E94D25D04
:10468000882309F434C1D50111969C91892F81505A
:104690008E3F18F06624772404C0892F0E94181DCD
:1046A0003C01F501818181508E3F20F46114710439
:1046B00009F41DC1D70112968C91129713962D9172
:1046C0003C911497813009F082E08B833D832C83E9
:1046D000F50181818E87D70115968D919C91169752
:1046E0000E9405419C01009759F083E08F87DE010D
:1046F0005296F90188E001900D928150E1F702C0D5
:1047000082E08F87F70185819681998B888B8781DD
:1047100090859B8F8A8FD50116968C9116978C8FDA
:1047200014968D919C9115979E8F8D8F12968D91D9
:104730009C91139798A38F8F218530E02A503040A9
:104740003AA329A3265F3F4F1DA28C9187FD07C086
:10475000285030403AA329A3285F3F4F0AC0F501F3
:104760008085837031F4295030403AA329A3275F14
:104770003F4F89A19AA1281B390BD7011A968D9119
:104780009C911B97820F931F9CA38BA31EA35296F1
:104790008C9152978FA31C968C911C9788A71E967C
:1047A0008D919D910D90BC91A02D89A79AA7ABA743
:1047B000BCA7F70185858DA7D5018C9187FF51C0D6
:1047C00018968C918370823009F04BC0E091E30918
:1047D000F091E409808189A31AA28081882E99240E
:1047E00001E010E032C06091E1097091E209DB0163
:1047F000A80DB91DE091E309F091E409E00FF11F64
:1048000040818091E6099091E709089F9001099FF6
:10481000300D189F300D1124260F371FCD01B9011F
:1048200050E00E94F97EE091E309F091E409E00F85
:10483000F11F208189A19AA1820F911D9AA389A3BA
:104840008081880E911C0F5F1F4FC090EC09DD2402
:104850000C151D0544F28091E1099091E2099CA399
:104860008BA36114710449F0D3011596ED91FC916D
:104870001697CE01019609953AC0F70182818130E1
:1048800029F4CE0101960E94E52231C0D50111968E
:104890008C918F3F41F500E010E06E010894C11C3F
:1048A000D11C1AC0D8011396ED91FC911497808108
:1048B000882391F012968C911297882369F42181B4
:1048C00032818D8D9E8D2817390731F41596ED9123
:1048D000FC911697C6010995C8010E940D1D8C0117
:1048E000009701F704C0CE0101960E94A61AF701B5
:1048F000158A0388F489E02DC70145960995AD9680
:10490000EEE00C94687EA0E0B0E0E9E8F4E20C94FC
:10491000507E6C01A62EFC01E284F384F7019181A4
:10492000892F81508E3FA0F4892F0E94181DDC0131
:10493000009771F01396ED91FC91149721813281CB
:10494000F701848195812817390709F007C108C04C
:10495000F701818181508E3F08F400C1A0E0B0E0F2
:10496000F701908197FF04C08085837009F0F6C03D
:1049700096FD02C091E0F3C09C70983009F4EEC03F
:10498000F60165817681FFEF673F7F0708F0E6C09B
:10499000109729F012968C91882309F0DFC0F60158
:1049A00002851385F801808186FF4EC283708130B5
:1049B00019F0E7E0BE2E02C0BB24B3943091D609B3
:1049C000A091DB09B091DC09A05CBF4F20E04B2D2A
:1049D00050E0E801C40FD51F1DC0A054B040179689
:1049E0008C911797A05CBF4F853089F48D919C9175
:1049F00011976817790759F41396ED91FC91149764
:104A0000E40FF51F98818081981709F41DC22F5F6C
:104A1000AA5ABF4F231708F382E00E942D1DEC0114
:104A2000009709F411C2DC01AD5BBF4FED91FC9121
:104A3000119777978A2D90E086709070959587955D
:104A40008370880F2081297F282B2083D282C18206
:104A50000D90BC91A02D62E06FAFC05CDF4FF601FE
:104A600085819681998388838091EE018F5F809301
:104A7000EE018150259689931992199281E08993CC
:104A8000899382E690E299838883CA54D0408C91BE
:104A90008C7F82608C93F80190819C70837F892B3E
:104AA0008C93908190718F7E892B982F9F799C9306
:104AB000908190788F71892B8C9380814B2D50E061
:104AC0009E012E5B3F4F84FF0CC0F60182859385CB
:104AD000840F951FFC01808111968C93F9016083EE
:104AE00039C088E0F9018083F801868111968C93A2
:104AF00011978281938113969C938E931297848150
:104B0000958115969C938E931497818116968C931C
:104B10001697F60182859385840F951FFC0180818D
:104B200017968C931797F801808187FF13C08085B3
:104B3000837039F418961C92F90180818F5F80830D
:104B400009C0F90180818D5F8083F80180858370C1
:104B500018968C93CE0109960E94F71E90E0F701FB
:104B6000808187FF69C18085837009F465C1F60182
:104B7000C285D385418519852091E509222309F451
:104B800063C166EFF62EF40E8091E009882321F0D0
:104B9000813009F059C151C00885013009F054C174
:104BA000211708F451C14091E6095091E7098F2D72
:104BB00090E04817590708F447C1822F90E04F5FF3
:104BC0005F4F849F9001859F300D949F300D11247D
:104BD0008091E1099091E20960E070E0A9010E94F2
:104BE000147F85E69AE090933C0A80933B0AA0925A
:104BF000700A0093E00989858093EC09F6018581AC
:104C000096819093F0098093EF0989818093F1094F
:104C10008A819B819093F3098093F2098C819D8115
:104C20009093F5098093F4098E818093F6098F8122
:104C30008093F7091092ED0910E09885892F837011
:104C4000823019F0112309F0FFC09C7F09F0FCC0ED
:104C50008091EC09811708F4F7C02091EF09309199
:104C6000F009F601858196812817390709F0ECC013
:104C70009091F1098981981709F0E6C02091F20915
:104C80003091F3098A819B812817390709F0DCC02C
:104C90002091F4093091F5098C819D8128173907FD
:104CA00009F0D2C09091F6098E81981709F0CCC016
:104CB0009091F7098F81981709F0C6C000911B02E7
:104CC000C12FD0E08091ED0990E0800F911D9E01F1
:104CD0002F5F3F4F8217930708F4B6C08091E60913
:104CE0009091E7099C01C29FC001C39F900DD29F84
:104CF000900D11242091E1093091E209280F391F0C
:104D000042855385465F5F4FC901BA014F2D50E080
:104D10000E94F97EE091E309F091E409EC0FFD1F98
:104D2000F0829091ED09911791F42091EC09809116
:104D30001B02291B821708F4282F81E090E002C093
:104D4000880F991F2A95E2F781958093EE09812FAC
:104D5000602F0E94067E21E030E002C0220F331F48
:104D60009A95E2F78091EE09822B8093EE09412F0C
:104D700050E08091EC099A012F5F3F4F90E082173D
:104D8000930789F40E9404208091EE098F3F19F562
:104D90001092E0091092E8091092E9091092EA09CC
:104DA0001092EB094BC02091ED0980911B0290E01D
:104DB000820F911D01978417950769F40E940420C2
:104DC0008091EE098F3F39F480911B029091ED099B
:104DD000890F8093ED0960911B0270E06150704073
:104DE000882777FD8095982F2AE030E040E050E05A
:104DF0000E94E77D9B01AC0160911702709118023F
:104E00008091190290911A02620F731F841F951FDF
:104E10002091160230E040E050E00E94E77D609370
:104E2000E8097093E9098093EA099093EB0988E017
:104E300092E00E947E5E08C0992321F0C6016A2D8F
:104E40000E94292380E001C081E0CDB7DEB7EAE00F
:104E50000C946C7E86E36DED79E00E9447088AE44D
:104E60006EED79E00E947C0840E016C0842F90E04F
:104E70009C01A5E0220F331FAA95E1F7880F991F27
:104E8000280F391FE091DE09F091DF09E20FF31FCF
:104E900080818E7F80834F5F8091DD09481730F3DA
:104EA00085E366ED79E00E94470889E46BED79E0DF
:104EB0000E947C0820E046E550E014C0822F90E07C
:104EC000BC01649FC001659F900D749F900D1124DB
:104ED000E091DB09F091DC09E80FF91F87818E7FF3
:104EE00087832F5F9091D609291740F38091DD09C0
:104EF0008093D709923008F091509093D80910927E
:104F0000D9091092DA098CE366EE79E00E9447082D
:104F10008BE365EE79E00E9447088091E5098823DC
:104F200051F08BE461EE79E00E947C088CE466E845
:104F30007AE00E947C088091E5092091E609309191
:104F4000E70990E0A901849F9001859F300D949F0F
:104F5000300D11248091E1099091E209820F931F95
:104F60009093E4098093E3091092E0090895FF9279
:104F70000F931F93CF93DF9301E010E0B6E5FB2E74
:104F8000CFEFD0E049C01F9D90011124E091DB09D3
:104F9000F091DC09E20FF31F978190FF3CC0808500
:104FA0008F708230C1F5892F8E7F823011F086306C
:104FB00091F583819481A581B6818A309105A105FF
:104FC000B10548F00A97A109B10983839483A583A9
:104FD000B68300E020C08085807F84608087138254
:104FE000148215821682E091DB09F091DC09E20F50
:104FF000F31F87818E7F863059F4CE0100901B020B
:1050000002C0880F991F0A94E2F780958093730A73
:1050100081E00E94421E1F5F8091D609181708F494
:10502000B2CF8091E8099091E909A091EA09B09185
:10503000EB090097A105B105D9F08B309105A105C9
:10504000B10560F00A97A109B1098093E80990932E
:10505000E909A093EA09B093EB0910C01092E8099E
:105060001092E9091092EA091092EB090E940420BB
:10507000002321F088E092E00E94535ECDB7DEB7B6
:10508000E5E00C94717E80E191E09093EB018093D8
:10509000EA011092F5011092F40110921C02109294
:1050A0001D021092F9011092F8010E942A270E9415
:1050B00032540895A7E0B0E0E0E6F8E20C94547EA4
:1050C0000E94A440F82E8E010C5F1F4F87E1B801AB
:1050D0000E9447082C813D814E815F818F2D90E099
:1050E000A0E0B0E082179307A407B50760F0220F95
:1050F000331F441F551F2C833D834E835F8387E1FD
:10510000B8010E9462088F2D90E00796AA2797FDAC
:10511000A095BA2F9C01AD0114E0220F331F441F4C
:10512000551F1A95D1F7281B390B4A0B5B0B8C8145
:105130009D81AE81BF81280F391F4A1F5B1F2093BD
:105140001702309318024093190250931A0288E014
:1051500092E060E02AE030E040E050E007EB17E248
:105160000E945C5E87E3BE016F5F7F4F0E9447082D
:1051700084E4BE016E5F7F4F0E947C08709116022E
:10518000E0901702F09018020091190210911A0293
:1051900060E020E030E040E050E013C0D801C701FB
:1051A000062E04C0880F991FAA1FBB1F0A94D2F7AE
:1051B00081509E4FAF4FBF4F280F391F4A1F5B1FB3
:1051C0006F5F671758F3CA01B90124EF31E040E07F
:1051D00050E00E94267E022F6A817B810E5F8DEF58
:1051E00091E0498124EF31E0EE24E3940E945C5D7C
:1051F0002796E6E00C94707E0F931F93882369F046
:105200001092EE010E94D37E809307021092EF016C
:1052100080E266E172E00E9447081092F30110926A
:10522000F2011092F1011092F0011092ED01109232
:10523000EC011092F7011092F6018AE090E0A0E0F4
:10524000B0E080937D0A90937E0AA0937F0AB0938A
:10525000800A8AEF9FE19093830A8093820A81E01B
:105260008093810A83E26BE172E00E94470810920A
:10527000EE091092F7091092EC091092F3091092BE
:10528000F2091092ED091092F1091092F5091092AD
:10529000F4091092F0091092EF091092F609109299
:1052A000E0091092E8091092E9091092EA091092B7
:1052B000EB0986E5E8EFF9E0DF011D928A95E9F751
:1052C00082E2EEE4FAE0DF011D928A95E9F70091AF
:1052D000E5098091E6099091E709019610E0089FA1
:1052E0009001099F300D189F300D11248091E10924
:1052F0009091E20960E070E0A9010E94147F85E6C8
:105300009AE090933C0A80933B0A0E945A281F918E
:105310000F910895ABE3B0E0E0E9F9E20C94487E28
:105320002091EA013091EB0139AB28AB81E02031CB
:10533000380709F43DC32051334009F05FC138C339
:105340002091DB093091DC09C801821B930B66E5D3
:1053500070E00E94127EA6E56A9F70011124E20EA1
:10536000F31EE8A9F9A926E0E031F20719F0E050B0
:10537000F54039F5D70117968C918E7F8430B9F4BA
:10538000C7010E94F61CFC0180818670823011F4F6
:105390006BEA09C0843011F46CEA05C0863011F064
:1053A0006AEA01C06FEA818192810E942923A801E3
:1053B0004C5F5F4FF7018081918163EA0E945B1E21
:1053C0001AC1D70117968C91882E86949924B1E042
:1053D0008B169104D9F0E2E08E16910424F4811426
:1053E000910461F00BC1F2E08F16910409F4ECC056
:1053F00023E08216910409F001C15EC0C701D80103
:1054000012966C9140E00E94E921F8C0F701908566
:10541000892F8F70813009F0F1C02090160292958B
:105420009F703324291A31082401022C02C0440C35
:10543000551C0A94E2F7420120911702309118029C
:105440004091190250911A02662457FC6094762C00
:10545000C301B2010E94E77D5B016C01D801129685
:105460008C91882361F40E94D37EA0E0B0E091701B
:10547000A070B0708A0D9B1DAC1DBD1D16C08E3C6A
:1054800069F4A8014C5F5F4FD7018D919C916EEC40
:105490000E945B1EC8010E94C91D8AC20E94D37E61
:1054A000B5010E94127EA0E0B0E0F70183839483EF
:1054B000A583B683D7017CC0F70180858F708130CA
:1054C00009F09CC0F091710AFAAB2091740A2CABE0
:1054D000822F90E001979DAB8CABAF2FB0E0BBABC0
:1054E000AAABA817B90771F130911B02E091730ABA
:1054F000EEA720E025C09EA5892F90E09FA78EA74C
:10550000022E02C0959587950A94E2F780FF17C096
:105510008091720A820F8093710A81E090E002C04C
:10552000880F991F2A95E2F780952091730A8223AC
:105530008093730A87E79AE00E946F095FC02F5F2C
:105540002317C8F20091840A1091850AA0911602CF
:10555000AEABF701808582958F702A2F30E0281B33
:1055600031093FAB2EAB81E090E00EA802C0880F5E
:10557000991F0A94E2F799AF88AF209117023091F2
:1055800018024091190250911A02AA2797FDA0957E
:10559000BA2F88AF99AFAAAFBBAFBC01CD010E94B3
:1055A000E77DD80113966D937D938D939C93169709
:1055B00018968C911897807F826018968C9388E05B
:1055C00092E00E947E5E1AC0C7010E94F61CFC0198
:1055D00080818670823011F46BEA09C0843011F446
:1055E0006CEA05C0863011F06AEA01C06FEA818179
:1055F00092810E942923C8010E94C91D8CEE91E06E
:105600000E9489188C01009709F09ACED1C180EFD1
:1056100091E00E9489180F51144051F0D7011A9659
:10562000ED91FC911B9780818370813009F0B4C1AA
:10563000F70152856385E52FF62F3081732F707443
:1056400036FF14C04091D9094090D6092091DA095B
:10565000842F90E0820F911D5524841595050CF040
:105660009BC18091D709481708F096C1932F9C7071
:10567000943009F491C1772359F0832F83708230DD
:1056800009F48AC1983009F487C19C3009F484C1B7
:1056900035FD82C1D7011296DC90B1E0DB16A1F096
:1056A00022E0D21609F078C18081F3E06F2E6822E3
:1056B00077246114710431F032E06316710409F04B
:1056C0006BC185C09C3041F0C7016FEA0E94832402
:1056D000882309F46FC160C1052F162FD7011596D5
:1056E0006D917C9116978DEF91E0F80140850E94B5
:1056F000D25D882309F450C1D70119968C9119976E
:10570000893008F449C1CB82F801818192819D835F
:105710008C8315968D919C9116970E940541009758
:1057200059F0F3E0FF87DE015296FC0188E001901A
:105730000D928150E1F708C0DF86D70115968D9153
:105740009C911697998B888BF701878190859B8F09
:105750008A8FD80117968C9117978C8F15968D91FB
:105760009C9116979E8F8D8F13968D919C91149777
:1057700098A38F8FA184BB24E7EFFFEFAE0EBF1E6F
:10578000BAA2A9A2D7011A968D919C911B9709964E
:105790009CA38BA31DA28FEA8EA352968C91529745
:1057A0008FA31C968C911C9788A71E968D919D9116
:1057B0000D90BC91A02D89A79AA7ABA7BCA7F70114
:1057C00085858DA7CE0101960E94E522E5C0A52F13
:1057D000B62F0091DB091091DC09CEC0F80177816A
:1057E00070FFC8C04085842F8F70823009F0C2C01E
:1057F000ED5BFF4F50816181F80180819181F7015C
:1058000025813681FC01838194812817390709F0AD
:10581000B1C0E52FF62F17969C911797878198179F
:1058200009F0A8C014962D913C911597848195811B
:105830002817390709F09EC012962D913C911397B5
:10584000828193812817390709F094C011969C91A1
:1058500011978681981709F08DC016969C9116971E
:105860008181981709F086C0407F4360F801408726
:10587000872F8E7F823069F1863009F07BC01996C0
:105880009C9119978091720A981709F085C081E060
:1058900090E000901B0202C0880F991F0A94E2F763
:1058A000982F91951A968C911A97982B1A969C93EB
:1058B0009F3F69F52090710A8090740A992408949A
:1058C0008108910833242814390449F4C8010E943E
:1058D000AB1CC80160E040E00E94E9215DC08091FE
:1058E0001B022091720A280F2093720A309116022F
:1058F0003093760A2093710A2FEF30E002C0220F16
:10590000331F8A95E2F7C90180958E7F23C0892FC6
:1059100080958093730A30911B0220E0482F50E05D
:105920001DC0CA01022E02C0959587950A94E2F720
:1059300080FF13C08091720A820F8093710A81E008
:1059400090E002C0880F991F2A95E2F78095209178
:10595000730A82238093730A03C02F5F231708F30F
:10596000E091840AF091850A80819181BF010E94B3
:10597000FF1E12C00A5A1F4F2091D60986E5289FA4
:10598000900111248091DB099091DC09820F931F13
:105990000817190708F422CFD70155961C9255977E
:1059A0005396ED91FC915497C7014596099502C015
:1059B000CC24C394E090F001F090F1010091EA0151
:1059C0001091EB01E114F10409F021CE01FF0CC0AC
:1059D00000C182EF91E0B8010E949918C80163EA02
:1059E00040E050E00E945B1E0091F2011091F30133
:1059F0000115110571F7F7C08091840A9091850A0D
:105A0000892BA1F0C7010E94E41C882351F40EC029
:105A1000F701808191819C0179012115310509F4FB
:105A2000E2C0C7010E94E41C882391F7D701579672
:105A30001C91812F837F09F060C0C7010E94E41C84
:105A4000882349F08091860A9091870A892B09F46E
:105A500054C012FF52C0F7018389948980369105A2
:105A600028F013FD03C0E0EADE2E8FC0D701529666
:105A70008C91882329F00E94181D892B09F483C179
:105A8000F7018789282F247082FF0DC08281823020
:105A900039F483819481885F9F4F08F074C103C0FB
:105AA000813009F470C1D70112969C911297892F09
:105AB0008250823030F41D968C91815F8E3008F4D4
:105AC00062C1992309F051C1222309F44EC1F701A3
:105AD00000891189D288E0E0F0E004C0838581303C
